{
  "_format": "hh-sol-artifact-1",
  "contractName": "TokenFarm",
  "sourceName": "contracts/TokenFarm.sol",
  "abi": [
    {
      "inputs": [
        {
          "internalType": "contract CfiToken",
          "name": "_cfiToken",
          "type": "address"
        },
        {
          "internalType": "contract DaiToken",
          "name": "_daiToken",
          "type": "address"
        }
      ],
      "stateMutability": "nonpayable",
      "type": "constructor"
    },
    {
      "inputs": [
        {
          "internalType": "uint256",
          "name": "amount",
          "type": "uint256"
        }
      ],
      "name": "borrow",
      "outputs": [],
      "stateMutability": "nonpayable",
      "type": "function"
    },
    {
      "inputs": [
        {
          "internalType": "address",
          "name": "",
          "type": "address"
        }
      ],
      "name": "borrowBalance",
      "outputs": [
        {
          "internalType": "uint256",
          "name": "",
          "type": "uint256"
        }
      ],
      "stateMutability": "view",
      "type": "function"
    },
    {
      "inputs": [
        {
          "internalType": "uint256",
          "name": "",
          "type": "uint256"
        }
      ],
      "name": "borrowers",
      "outputs": [
        {
          "internalType": "address",
          "name": "",
          "type": "address"
        }
      ],
      "stateMutability": "view",
      "type": "function"
    },
    {
      "inputs": [],
      "name": "cfiToken",
      "outputs": [
        {
          "internalType": "contract CfiToken",
          "name": "",
          "type": "address"
        }
      ],
      "stateMutability": "view",
      "type": "function"
    },
    {
      "inputs": [],
      "name": "daiToken",
      "outputs": [
        {
          "internalType": "contract DaiToken",
          "name": "",
          "type": "address"
        }
      ],
      "stateMutability": "view",
      "type": "function"
    },
    {
      "inputs": [
        {
          "internalType": "address",
          "name": "",
          "type": "address"
        }
      ],
      "name": "hasBorrowed",
      "outputs": [
        {
          "internalType": "bool",
          "name": "",
          "type": "bool"
        }
      ],
      "stateMutability": "view",
      "type": "function"
    },
    {
      "inputs": [
        {
          "internalType": "address",
          "name": "",
          "type": "address"
        }
      ],
      "name": "hasStaked",
      "outputs": [
        {
          "internalType": "bool",
          "name": "",
          "type": "bool"
        }
      ],
      "stateMutability": "view",
      "type": "function"
    },
    {
      "inputs": [
        {
          "internalType": "address",
          "name": "",
          "type": "address"
        }
      ],
      "name": "isBorrowing",
      "outputs": [
        {
          "internalType": "bool",
          "name": "",
          "type": "bool"
        }
      ],
      "stateMutability": "view",
      "type": "function"
    },
    {
      "inputs": [
        {
          "internalType": "address",
          "name": "",
          "type": "address"
        }
      ],
      "name": "isStaking",
      "outputs": [
        {
          "internalType": "bool",
          "name": "",
          "type": "bool"
        }
      ],
      "stateMutability": "view",
      "type": "function"
    },
    {
      "inputs": [],
      "name": "issueTokens",
      "outputs": [],
      "stateMutability": "nonpayable",
      "type": "function"
    },
    {
      "inputs": [],
      "name": "name",
      "outputs": [
        {
          "internalType": "string",
          "name": "",
          "type": "string"
        }
      ],
      "stateMutability": "view",
      "type": "function"
    },
    {
      "inputs": [],
      "name": "owner",
      "outputs": [
        {
          "internalType": "address",
          "name": "",
          "type": "address"
        }
      ],
      "stateMutability": "view",
      "type": "function"
    },
    {
      "inputs": [
        {
          "internalType": "uint256",
          "name": "intrest",
          "type": "uint256"
        }
      ],
      "name": "repay",
      "outputs": [],
      "stateMutability": "nonpayable",
      "type": "function"
    },
    {
      "inputs": [
        {
          "internalType": "uint256",
          "name": "",
          "type": "uint256"
        }
      ],
      "name": "stakers",
      "outputs": [
        {
          "internalType": "address",
          "name": "",
          "type": "address"
        }
      ],
      "stateMutability": "view",
      "type": "function"
    },
    {
      "inputs": [
        {
          "internalType": "uint256",
          "name": "_amount",
          "type": "uint256"
        }
      ],
      "name": "supply",
      "outputs": [],
      "stateMutability": "nonpayable",
      "type": "function"
    },
    {
      "inputs": [
        {
          "internalType": "address",
          "name": "",
          "type": "address"
        }
      ],
      "name": "userBalance",
      "outputs": [
        {
          "internalType": "uint256",
          "name": "",
          "type": "uint256"
        }
      ],
      "stateMutability": "view",
      "type": "function"
    },
    {
      "inputs": [],
      "name": "withdraw",
      "outputs": [],
      "stateMutability": "nonpayable",
      "type": "function"
    }
  ],
  "bytecode": "0x60806040526040518060400160405280600f81526020017f4461707020546f6b656e204661726d0000000000000000000000000000000000815250600090805190602001906200005192919062000150565b503480156200005f57600080fd5b5060405162001b2038038062001b208339818101604052810190620000859190620002c3565b81600260006101000a81548173ffffffffffffffffffffffffffffffffffffffff021916908373ffffffffffffffffffffffffffffffffffffffff16021790555080600360006101000a81548173ffffffffffffffffffffffffffffffffffffffff021916908373ffffffffffffffffffffffffffffffffffffffff16021790555033600160006101000a81548173ffffffffffffffffffffffffffffffffffffffff021916908373ffffffffffffffffffffffffffffffffffffffff16021790555050506200036f565b8280546200015e9062000339565b90600052602060002090601f016020900481019282620001825760008555620001ce565b82601f106200019d57805160ff1916838001178555620001ce565b82800160010185558215620001ce579182015b82811115620001cd578251825591602001919060010190620001b0565b5b509050620001dd9190620001e1565b5090565b5b80821115620001fc576000816000905550600101620001e2565b5090565b600080fd5b600073ffffffffffffffffffffffffffffffffffffffff82169050919050565b6000620002328262000205565b9050919050565b6000620002468262000225565b9050919050565b620002588162000239565b81146200026457600080fd5b50565b60008151905062000278816200024d565b92915050565b60006200028b8262000225565b9050919050565b6200029d816200027e565b8114620002a957600080fd5b50565b600081519050620002bd8162000292565b92915050565b60008060408385031215620002dd57620002dc62000200565b5b6000620002ed8582860162000267565b92505060206200030085828601620002ac565b9150509250929050565b7f4e487b7100000000000000000000000000000000000000000000000000000000600052602260045260246000fd5b600060028204905060018216806200035257607f821691505b602082108114156200036957620003686200030a565b5b50919050565b6117a1806200037f6000396000f3fe608060405234801561001057600080fd5b506004361061010b5760003560e01c80636f49712b116100a2578063be22f54611610071578063be22f546146102b8578063c5ebeaec146102d6578063c93c8f34146102f2578063d272bf1214610322578063fd5e6dd1146103405761010b565b80636f49712b1461020a5780637924d93f1461023a5780638da5cb5b1461026a578063a6a9ef02146102885761010b565b80633ccfd60b116100de5780633ccfd60b146101965780634d73e9ba146101a057806350711be9146101d057806360ab5852146102005761010b565b80630103c92b1461011057806306fdde0314610140578063354030231461015e578063371fd8e61461017a575b600080fd5b61012a60048036038101906101259190611185565b610370565b60405161013791906111cb565b60405180910390f35b610148610388565b604051610155919061127f565b60405180910390f35b610178600480360381019061017391906112cd565b610416565b005b610194600480360381019061018f91906112cd565b610701565b005b61019e61092b565b005b6101ba60048036038101906101b59190611185565b610b02565b6040516101c791906111cb565b60405180910390f35b6101ea60048036038101906101e59190611185565b610b1a565b6040516101f79190611315565b60405180910390f35b610208610b3a565b005b610224600480360381019061021f9190611185565b610d33565b6040516102319190611315565b60405180910390f35b610254600480360381019061024f91906112cd565b610d53565b604051610261919061133f565b60405180910390f35b610272610d92565b60405161027f919061133f565b60405180910390f35b6102a2600480360381019061029d9190611185565b610db8565b6040516102af9190611315565b60405180910390f35b6102c0610dd8565b6040516102cd91906113b9565b60405180910390f35b6102f060048036038101906102eb91906112cd565b610dfe565b005b61030c60048036038101906103079190611185565b61109d565b6040516103199190611315565b60405180910390f35b61032a6110bd565b60405161033791906113f5565b60405180910390f35b61035a600480360381019061035591906112cd565b6110e3565b604051610367919061133f565b60405180910390f35b60066020528060005260406000206000915090505481565b600080546103959061143f565b80601f01602080910402602001604051908101604052809291908181526020018280546103c19061143f565b801561040e5780601f106103e35761010080835404028352916020019161040e565b820191906000526020600020905b8154815290600101906020018083116103f157829003601f168201915b505050505081565b60008111610459576040517f08c379a0000000000000000000000000000000000000000000000000000000008152600401610450906114bd565b60405180910390fd5b600360009054906101000a900473ffffffffffffffffffffffffffffffffffffffff1673ffffffffffffffffffffffffffffffffffffffff166323b872dd3330846040518463ffffffff1660e01b81526004016104b8939291906114dd565b602060405180830381600087803b1580156104d257600080fd5b505af11580156104e6573d6000803e3d6000fd5b505050506040513d601f19601f8201168201806040525081019061050a9190611540565b5080600660003373ffffffffffffffffffffffffffffffffffffffff1673ffffffffffffffffffffffffffffffffffffffff16815260200190815260200160002054610556919061159c565b600660003373ffffffffffffffffffffffffffffffffffffffff1673ffffffffffffffffffffffffffffffffffffffff16815260200190815260200160002081905550600860003373ffffffffffffffffffffffffffffffffffffffff1673ffffffffffffffffffffffffffffffffffffffff16815260200190815260200160002060009054906101000a900460ff1661064e576004339080600181540180825580915050600190039060005260206000200160009091909190916101000a81548173ffffffffffffffffffffffffffffffffffffffff021916908373ffffffffffffffffffffffffffffffffffffffff1602179055505b6001600960003373ffffffffffffffffffffffffffffffffffffffff1673ffffffffffffffffffffffffffffffffffffffff16815260200190815260200160002060006101000a81548160ff0219169083151502179055506001600860003373ffffffffffffffffffffffffffffffffffffffff1673ffffffffffffffffffffffffffffffffffffffff16815260200190815260200160002060006101000a81548160ff02191690831515021790555050565b6000600760003373ffffffffffffffffffffffffffffffffffffffff1673ffffffffffffffffffffffffffffffffffffffff16815260200190815260200160002054905060008111610788576040517f08c379a000000000000000000000000000000000000000000000000000000000815260040161077f906114bd565b60405180910390fd5b600082600760003373ffffffffffffffffffffffffffffffffffffffff1673ffffffffffffffffffffffffffffffffffffffff168152602001908152602001600020546107d5919061159c565b9050600360009054906101000a900473ffffffffffffffffffffffffffffffffffffffff1673ffffffffffffffffffffffffffffffffffffffff166323b872dd3330846040518463ffffffff1660e01b8152600401610836939291906114dd565b602060405180830381600087803b15801561085057600080fd5b505af1158015610864573d6000803e3d6000fd5b505050506040513d601f19601f820116820180604052508101906108889190611540565b506000600760003373ffffffffffffffffffffffffffffffffffffffff1673ffffffffffffffffffffffffffffffffffffffff168152602001908152602001600020819055506000600a60003373ffffffffffffffffffffffffffffffffffffffff1673ffffffffffffffffffffffffffffffffffffffff16815260200190815260200160002060006101000a81548160ff021916908315150217905550505050565b6000600660003373ffffffffffffffffffffffffffffffffffffffff1673ffffffffffffffffffffffffffffffffffffffff168152602001908152602001600020549050600081116109b2576040517f08c379a00000000000000000000000000000000000000000000000000000000081526004016109a99061163e565b60405180910390fd5b600360009054906101000a900473ffffffffffffffffffffffffffffffffffffffff1673ffffffffffffffffffffffffffffffffffffffff1663a9059cbb33836040518363ffffffff1660e01b8152600401610a0f92919061165e565b602060405180830381600087803b158015610a2957600080fd5b505af1158015610a3d573d6000803e3d6000fd5b505050506040513d601f19601f82011682018060405250810190610a619190611540565b506000600660003373ffffffffffffffffffffffffffffffffffffffff1673ffffffffffffffffffffffffffffffffffffffff168152602001908152602001600020819055506000600960003373ffffffffffffffffffffffffffffffffffffffff1673ffffffffffffffffffffffffffffffffffffffff16815260200190815260200160002060006101000a81548160ff02191690831515021790555050565b60076020528060005260406000206000915090505481565b600a6020528060005260406000206000915054906101000a900460ff1681565b600160009054906101000a900473ffffffffffffffffffffffffffffffffffffffff1673ffffffffffffffffffffffffffffffffffffffff163373ffffffffffffffffffffffffffffffffffffffff1614610bca576040517f08c379a0000000000000000000000000000000000000000000000000000000008152600401610bc1906116d3565b60405180910390fd5b60005b600480549050811015610d3057600060048281548110610bf057610bef6116f3565b5b9060005260206000200160009054906101000a900473ffffffffffffffffffffffffffffffffffffffff1690506000600660008373ffffffffffffffffffffffffffffffffffffffff1673ffffffffffffffffffffffffffffffffffffffff1681526020019081526020016000205490506000811115610d1b57600260009054906101000a900473ffffffffffffffffffffffffffffffffffffffff1673ffffffffffffffffffffffffffffffffffffffff1663a9059cbb83836040518363ffffffff1660e01b8152600401610cc792919061165e565b602060405180830381600087803b158015610ce157600080fd5b505af1158015610cf5573d6000803e3d6000fd5b505050506040513d601f19601f82011682018060405250810190610d199190611540565b505b50508080610d2890611722565b915050610bcd565b50565b60096020528060005260406000206000915054906101000a900460ff1681565b60058181548110610d6357600080fd5b906000526020600020016000915054906101000a900473ffffffffffffffffffffffffffffffffffffffff1681565b600160009054906101000a900473ffffffffffffffffffffffffffffffffffffffff1681565b600b6020528060005260406000206000915054906101000a900460ff1681565b600360009054906101000a900473ffffffffffffffffffffffffffffffffffffffff1681565b60008111610e41576040517f08c379a0000000000000000000000000000000000000000000000000000000008152600401610e38906114bd565b60405180910390fd5b600360009054906101000a900473ffffffffffffffffffffffffffffffffffffffff1673ffffffffffffffffffffffffffffffffffffffff1663a9059cbb33836040518363ffffffff1660e01b8152600401610e9e92919061165e565b602060405180830381600087803b158015610eb857600080fd5b505af1158015610ecc573d6000803e3d6000fd5b505050506040513d601f19601f82011682018060405250810190610ef09190611540565b5080600760003373ffffffffffffffffffffffffffffffffffffffff1673ffffffffffffffffffffffffffffffffffffffff168152602001908152602001600020819055506001600a60003373ffffffffffffffffffffffffffffffffffffffff1673ffffffffffffffffffffffffffffffffffffffff16815260200190815260200160002060006101000a81548160ff0219169083151502179055506001600b60003373ffffffffffffffffffffffffffffffffffffffff1673ffffffffffffffffffffffffffffffffffffffff16815260200190815260200160002060006101000a81548160ff021916908315150217905550600b60003373ffffffffffffffffffffffffffffffffffffffff1673ffffffffffffffffffffffffffffffffffffffff16815260200190815260200160002060009054906101000a900460ff1661109a576005339080600181540180825580915050600190039060005260206000200160009091909190916101000a81548173ffffffffffffffffffffffffffffffffffffffff021916908373ffffffffffffffffffffffffffffffffffffffff1602179055505b50565b60086020528060005260406000206000915054906101000a900460ff1681565b600260009054906101000a900473ffffffffffffffffffffffffffffffffffffffff1681565b600481815481106110f357600080fd5b906000526020600020016000915054906101000a900473ffffffffffffffffffffffffffffffffffffffff1681565b600080fd5b600073ffffffffffffffffffffffffffffffffffffffff82169050919050565b600061115282611127565b9050919050565b61116281611147565b811461116d57600080fd5b50565b60008135905061117f81611159565b92915050565b60006020828403121561119b5761119a611122565b5b60006111a984828501611170565b91505092915050565b6000819050919050565b6111c5816111b2565b82525050565b60006020820190506111e060008301846111bc565b92915050565b600081519050919050565b600082825260208201905092915050565b60005b83811015611220578082015181840152602081019050611205565b8381111561122f576000848401525b50505050565b6000601f19601f8301169050919050565b6000611251826111e6565b61125b81856111f1565b935061126b818560208601611202565b61127481611235565b840191505092915050565b600060208201905081810360008301526112998184611246565b905092915050565b6112aa816111b2565b81146112b557600080fd5b50565b6000813590506112c7816112a1565b92915050565b6000602082840312156112e3576112e2611122565b5b60006112f1848285016112b8565b91505092915050565b60008115159050919050565b61130f816112fa565b82525050565b600060208201905061132a6000830184611306565b92915050565b61133981611147565b82525050565b60006020820190506113546000830184611330565b92915050565b6000819050919050565b600061137f61137a61137584611127565b61135a565b611127565b9050919050565b600061139182611364565b9050919050565b60006113a382611386565b9050919050565b6113b381611398565b82525050565b60006020820190506113ce60008301846113aa565b92915050565b60006113df82611386565b9050919050565b6113ef816113d4565b82525050565b600060208201905061140a60008301846113e6565b92915050565b7f4e487b7100000000000000000000000000000000000000000000000000000000600052602260045260246000fd5b6000600282049050600182168061145757607f821691505b6020821081141561146b5761146a611410565b5b50919050565b7f616d6f756e742063616e6e6f7420626520300000000000000000000000000000600082015250565b60006114a76012836111f1565b91506114b282611471565b602082019050919050565b600060208201905081810360008301526114d68161149a565b9050919050565b60006060820190506114f26000830186611330565b6114ff6020830185611330565b61150c60408301846111bc565b949350505050565b61151d816112fa565b811461152857600080fd5b50565b60008151905061153a81611514565b92915050565b60006020828403121561155657611555611122565b5b60006115648482850161152b565b91505092915050565b7f4e487b7100000000000000000000000000000000000000000000000000000000600052601160045260246000fd5b60006115a7826111b2565b91506115b2836111b2565b9250827fffffffffffffffffffffffffffffffffffffffffffffffffffffffffffffffff038211156115e7576115e661156d565b5b828201905092915050565b7f7374616b696e672062616c616e63652063616e6e6f7420626520300000000000600082015250565b6000611628601b836111f1565b9150611633826115f2565b602082019050919050565b600060208201905081810360008301526116578161161b565b9050919050565b60006040820190506116736000830185611330565b61168060208301846111bc565b9392505050565b7f63616c6c6572206d75737420626520746865206f776e65720000000000000000600082015250565b60006116bd6018836111f1565b91506116c882611687565b602082019050919050565b600060208201905081810360008301526116ec816116b0565b9050919050565b7f4e487b7100000000000000000000000000000000000000000000000000000000600052603260045260246000fd5b600061172d826111b2565b91507fffffffffffffffffffffffffffffffffffffffffffffffffffffffffffffffff8214156117605761175f61156d565b5b60018201905091905056fea264697066735822122061a167dfda3ff152c7e3ce43b60446a5009887b3d40e0436cc925b413472b36364736f6c63430008090033",
  "linkReferences": {},
  "deployedLinkReferences": {}
}